:020000040000FA
:0600000002123D0207C8D8
:03002B00020F9F22
:03003300020E8C2E
:030053000206F7AB
:1000830002075901010000000000F8FF07FFFF000D
:10009300000504000000030001FFFFFFFF00141030
:1000A3002700000020FD000206FFFF1EFF010401E0
:1000B3000C00020776850000000204010C00020117
:1000C300BC86000000010400004414000000E803A3
:1000D3000000FFFF95140188130000E8030000648B
:1000E300006400B801A0BB0D00A0BB0D000202021A
:1000F300070401051E02051E020A0A010108080180
:1001030003B80B02803E0102FEFFE8030A0500016B
:10011300FFFF020A011401E0050301010F030003BD
:1001230000030003000300030003000300030005B2
:10013300000A00140028004F009E000000272D0035
:10014300000000FB2B00000000FF000000FF001276
:100153001289604612124D603DE9687008F618F680
:1001630018F618F622748067F712018609090974D4
:100173008067F72212124D601D121289700519193A
:1001830019801A12112C701F1210F0C37003E66746
:100193003319191940071818182208080874FFF6AC
:1001A30018F618F618F6221210F060171212EA70F9
:1001B3002192F01212FC7019501720F0140808084D
:1001C300090909E7F61819E7F61819E7F61819E700
:1001D300F6221212FC60E6E869701F0808E6248024
:1001E300F608E436F618547FB47F0CE654806007B3
:1001F300F6E418F618F622181822E9C6CC08C6CD7C
:1002030008C6CE08C6CFC0E0E8C0E0EAC0E0EBC055
:10021300E009E9F809E7FA09E7FBE6F918E6F8C3A4
:10022300EC98ED99EE9AEBC2E7F5F0EFC2E795F0A3
:10023300500E600CEBCFFBEACEFAE9CDF9E8CCF82F
:10024300EAA2E7D2E7FAEB33FB13F5F0EEA2E7D22B
:10025300E7FEEF33FFC5F013A2E730E601B313C5A2
:10026300F0C3C0E0C0F07F00C39BFB605E941860E6
:100273000F401D14601AD0E023F9D0E0F8020358B0
:100283008AF0E9486003D2F0E4AFF0FAF9F8803B72
:10029300EB30E40D89F0EA6003D2F0E4AFF0F9CA81
:1002A300F8EB30E30D88F0EF6002D2F0AFF0E4CA70
:1002B300C9F8EB54076014FBC3EA13FAE913F9E82E
:1002C30013F8EF135002D2E0FFDBEDD0E0C0E030D3
:1002D300E739C3E49FFFF5F0EC98FC42F0ED99FD9C
:1002E30042F0EE9AFE42F0D0E0F9D0E0F8E5F0609B
:1002F3007AE923F9EE20E742D8028067C3EF33FFA0
:10030300EC33FCED33FDEE33FE80EAEC28FCED39F3
:10031300FDEE3AFED0E023F9D0E0F84002801BC3A3
:10032300EE13FEED13FDEC13FCEF135002D2E0FFCE
:1003330008B800067F7F74FF802EEF3350178CF0D0
:1003430020F00260100CBC000C0DBD00080EBE00B6
:100353000408E860DFE933E813FFEE2313FE4F4D93
:100363004C8008E95480FFE4FEFDFCEE33EF33F4E8
:100373007004FCFD7E80D0E0FBD0E0FAD0E0F8D042
:10038300E0CFC618CEC618CDC618CCC6F9221212B5
:100393004D700418181822121289700D74FFF61884
:1003A30019F61819F61819F622E7548066F6121290
:1003B300FC700F1212EA70F014F608F608F608F64D
:1003C30080D11212EA700CF608F608768008E6442B
:1003D3007F80EC1210F3700C12112F60BFE6548073
:1003E300F6E480BB12112F700519191980A5E8696D
:1003F300700C763F18768018F618F6E8F922E6CDE9
:10040300C0E018ECC0E0E633CD33CDD313F6E719E3
:10041300FCE7191933CC33C3947F400ECD9D502490
:1004230008E65480F6E418F6800FF4043D145014E3
:1004330008E6447FF6187680E418F618F6D0E0FC58
:10044300D0E0FD22CCD313CCFD18E4C6CBC0E0181A
:10045300E4C6CAC0E00808ED08C633E613F618E49C
:1004630033C675F003C3CA97CA09CB97CB199C400F
:10047300047D08802EBD000302053A16B6FF05066B
:1004830006081618C3CA33CACB33CB33CA27CA09E3
:10049300CB37CB193CC37D08803E187D0820E75C31
:1004A300C633C6CA33CACB33CB33DDF1D5F0EB3019
:1004B300E77BCA97CA09CB974ACB199C406F4B700D
:1004C30025E620E0218066187D08C3CA97CA09CBB8
:1004D30097CB199CD3C633C6CA33CACB33CB33505D
:1004E300C9DDE7D5F0E1D3E4C636C608C636C6088B
:1004F300C636C608C636C61818188031C3CA97CA86
:1005030009CB97CB199CB34097C633C6CA33CACB22
:1005130033CB33DD34D5F02EC6A2E0C640C8CA279C
:10052300CA09CB37194A70BECB3CB480B90808E678
:100533003308E633601F181818D0E0FAD0E0FBD078
:10054300E0FCD0E0FD22187D08CA27CA09CB37CBCF
:10055300193CD3808013F618E4B67F11F618B6FF62
:100563000EF618C60470D20808768080CAF618F60C
:1005730018F680C50012124D604F1212896012E7FF
:10058300548066F612112C70111212EA703B09099D
:1005930009F4F618F618F618F6221210F070151270
:1005A30012FC08080860EAE6447FF618768018E42F
:1005B300F618F6221212FC60161212EA7012E4F612
:1005C30008F608F608E65480F609090918181822EF
:1005D300EAC0E0EBC0E0ECC0E0EDC0E0E687F0A4E9
:1005E300FBACF008E687F0A42CFCE435F0FA18091C
:1005F300E687F0A42C4B60027401CA35F0FCE433A7
:10060300FB09E687F0D2F7A42CCB35F0FC1908E6FA
:1006130087F0A42BCC35F0FBE433FD0819E687F013
:10062300D2E7A42C4ACB35F0CD3400FC09E687F0A1
:10063300D2E7A42DCC35F0FDE433FA0918E687F0B0
:10064300D2F7A42CCD35F0CA3400FC08E687F0D2EB
:10065300E7D2F7A42ACC35F07A7E20E70B0ACB3316
:10066300CBCD33CDCC33CC33CB3350147004ED30FE
:10067300E00ED2F1E4CD3DCDCC3CCC3B5005DA05C8
:10068300C2F1EB547FC63308E63392F0FBE733093C
:10069300E733C39A502D2B70190C0D4C4D70151860
:1006A30006E608C333700D20F10AA2F013F6E4182E
:1006B300800B4024E4F630F002768018F618F61822
:1006C300F68024D33B14501074FFA2F013F618766F
:1006D30080E418F618F6800FA2F013F618E6330339
:1006E300F618ECF618EDF6D0E0FDD0E0FCD0E0FB18
:1006F300D0E0FA22C0E074F1120AEBA2AFE433F5C2
:1007030009D2AF85A708AFA1EF5508FE74105E604C
:10071300061215E175A1EF74085E60081215E775FE
:10072300A1F78024EFA2E092F0E508A2E082F05066
:1007330017906198E0F8900634E0C398A2D265D090
:10074300335002E8F075A1FE752300E509A2E0929B
:10075300AF7F02020BA7C0E074F2120AEBA2AFE470
:1007630033FED2AF9061A4E0F8759B00E591585435
:100773000860087591F71216358023E591585410D7
:1007830060087591EF12163B8014E591A2E092F098
:10079300E8A2E082F05007E0C2E0F0121791906106
:1007A300A3E0F8E5E9585404600E12176775E9FBF6
:1007B300906193E0A2E640F2752300EEA2E092AFCF
:1007C3007F01020BA7C0E074F2120AEBA2AFE4337D
:1007D300FED2AF9061A5E0F8E5BF585404600675FA
:1007E300BFFB1217A980D112083F30F043120884CF
:1007F300803E8A088B098C0A8D0B780812083F20EB
:10080300F01430E72B74FFFCFBFA747F8022E4FCC6
:10081300FBFA7480801AB48008BC00F2BB00EF803E
:100823000F50EBF9E4C39AFAE49BFBE49CFCE499D4
:10083300C6CC18C6CB18C6CA18C6F922E4C9C6085E
:10084300CAC608CBC6D3330308CCC63392F0C394CD
:100853007F402E94184019C9B90704CACBCC225043
:1008630025C309CA33CACB33CBCC33CC33D9F42217
:10087300F4600DC9CCC313CB13CBCA13CAD9F6CCBE
:1008830022E4FCFBFA2214FCFBFA22C3E498F8E40A
:1008930099F91208CF8026C3E49AFAE49BFBE92076
:1008A300E7E91208CFE498F8E499F922C3E498F849
:1008B300E499F91208CFE498F8E499F9C3E49AFAB1
:1008C300E49BFB22EB20E7CFE920E7E0B90010BB74
:1008D3000008E88AF084F8AAF022E4FBC8FA22EBC5
:1008E30070227B10C833C8C933C9335007C39AC3B6
:1008F300DBF280069A50012ADBEAC833F4C8C93315
:10090300F4C9FA2275F008E4C833C8C933C933C936
:100913009AC99B5004C92AC93BD5F0ECFBC833F4F0
:10092300C8E4C9FA22080808EAC0E0EBC0E086F090
:10093300E7A4FA180986F0E7A42AFA180986F0E76B
:10094300A42AFA180986F0E7A42AFA1986F0E7A47C
:10095300FBE5F02AFA190886F0E7A42BFBE5F03A49
:10096300FA190886F0E7A42BFBE5F03AFA18180900
:1009730086F0E7A4C5F02BFBE43AFA1908E7C5F0C3
:10098300C6A426F6E5F03BFBE43AFA1886F0E7A4A2
:10099300F6E5F00826F6E43B08F6E43A08F6D0E07C
:1009A300FBD0E0FA22E4CFC0E0E4CEC0E0E4CDC067
:1009B300E0E4CCC0E075F020E626F608E633F6085E
:1009C300E633F608E633F6181818EC33FCED33FD7E
:1009D300EE33FEEF33FFC3EC9709ED9709EE97096A
:1009E300EF97191919400FFFEC97FC09ED97FD09D3
:1009F300EE97FE191906D5F0BFECF709EDF709EEEE
:100A0300F709EFF7191919D0E0FCD0E0FDD0E0FEAB
:100A1300D0E0FF222521C582C0E0E52234FFC58353
:100A2300C0E0E521C3958224F810AF0885832285B1
:100A330082218008858322858221D2AFCEF0A3E56F
:100A430020F0A37808E608F0A3DEFAEFF0A3E5812F
:100A530024FAF8E608F0A3E608F0A3E608F0A308F2
:100A630008E608F0A3E608F0A315811581D0E0FE9F
:100A7300D0E0F8158115811581E8C0E0EEC0E022D1
:100A83001212D5B90003020AD5E490050178307932
:100A9300138002F0A3D8FCD9FA78239000867A0158
:100AA300BA00028007E493A3F608DAF97A307B17D9
:100AB30090008778CC79018015E493A3AD82AE834F
:100AC3008A828B83F0A3AA82AB838D828E83D8E93B
:100AD300D9E77582377583CE7404120F817582430B
:100AE3007583297400120F81C0D02521C582C0E00F
:100AF300E52234FFC583C0E0E521C3958224F310CA
:100B0300AF088583228582218008858322858221FF
:100B1300D2AFC8F0A3E9F0A3EAF0A3EBF0A37908FE
:100B2300E709F0A3D8FAECF0A3EDF0A3EEF0A3EFFE
:100B3300F0A3D0E0F0A3D0E0F0A3D0E0F0A3E52051
:100B4300F0A3E5F0F0A322E9799EC608CAC608CB54
:100B5300C608CCC6C370207996CACBCC7019798EDF
:100B6300CBCC70137986CC700EF9802ACA33CACBEA
:100B730033CBCC33CC331930E7F2CCCBCA3350145C
:100B83007004EA30E00DE4CA3ACACB3BCBCC3CCC90
:100B9300500209C3E913C6CC182313C6CB18C6CA1F
:100BA30018C6F922852283852182E0C0E0A3E0F9FB
:100BB300A3E0FAA3E0FBA37808E0F608A3DFFAE0DA
:100BC300FCA3E0FDA3E0FEA3E0FFA3E0C0E0A3E0FD
:100BD300C0E0A3E0F5D0A3E0F520A3E0A3F5F01077
:100BE300AF0885832285822180088583228582211F
:100BF300D2AFD082D083D0E0F8D0E0320475F010C9
:100C03008E248F25858229858328852182852283C9
:100C1300E0CEA3E0CF852982852883EBC9EAC8ED1E
:100C2300CBECCAC3E833C8E933C9EA33CAEB33CBE5
:100C3300C3EA9EF527EB9FF526B35004AB26AA27FC
:100C4300EC33CCED33CDD5F0DAAE24AF252212123E
:100C53004D601C12128960171212FC70071212EAFF
:100C63007001D322C0D01212EA7006D0D0B322C3CF
:100C73002233D0D0501430E0F6C3E7960809E79644
:100C83000809E7960809E796B32220E0D5E6970816
:100C930009E6970809E6970809E697B322D083D0B7
:100CA30082ECC0E0EDC0E0E493A3FCE493A3FDED8C
:100CB3004C600D120DC4EC24FFFCED34FFFD80EFFE
:100CC300E493A3FCE493A3FDED4C600D120E61ECE1
:100CD30024FFFCED34FFFD80EFD0E0FDD0E0FCE429
:100CE30093A3C0E0E493C0E02212124D601B1212E2
:100CF3008960161212FC70071212EA600CB322C04C
:100D0300D01212EA7005D0D022C32233D0D05013B0
:100D130030E0EBC3E7960809E7960809E796080968
:100D2300E7962220E0E4E6970809E6970809E697A4
:100D33000809E69722852283852182E0A3FEE0A3AA
:100D4300F5207808E0A3F608DFFAE0A3FFE0A3C0EC
:100D5300E0E0A3C0E0E0A3C0E0E0A3C0E0E0A3C004
:100D6300E010AF0885822185832280088582218552
:100D73008322D2AFD083D082020F87D083D082E97F
:100D8300C0E0E493A3C386F0C5F095F0F908E493BB
:100D9300A386F0C5F095F0700BE493A3C3994005C7
:100DA300E9048002A3E475F002A42582F582E5F04C
:100DB3003583F583D0E0F9E493A3C0E0E493C0E086
:100DC30022C0E0C3E49396087401939618400FE49D
:100DD3009366700808740193661870007019A3A3D2
:100DE300C3E49396087401939618A3A3400DD0E02F
:100DF300D0E0D0E0020CDCA3A3A3A3A3A3D0E02202
:100E03007404800474028000CCC0E0EDC0E0E521EE
:100E1300C39CCCAD2250011D10AF068C218D2280C6
:100E2300068C218D22D2AF120F03D0E0FDD0E0FC5F
:100E33002274028000CCC0E0EDC0E0E521C39CCC6D
:100E4300AD2250011D10AF068C218D2280068C210E
:100E53008D22D2AF120EE1D0E0FDD0E0FC22C0E043
:100E6300C0F088F0E4936670080874019366187004
:100E730000A8F0A3A3700BD0F0D0E0D0E0D0E00244
:100E83000CDCA3A3D0F0D0E022C0E074F2120AEB92
:100E9300A2AFE433FED2AFE58BA2E0500579041292
:100EA300151B758B00C2E8752300EEA2E092AF7F9D
:100EB30001020BA7D083D082CCC0E0E493A36006E9
:100EC300120F431470FAE493A360061210701470A7
:100ED300FAD0E0FCE493A3C0E0E493C0E022CAC0EC
:100EE300E0E493A3C582CCC582C583CDC583F0A3BB
:100EF300C582CCC582C583CDC583DAE5D0E0CA22DD
:100F0300CAC0E0E0A3C582CCC582C583CDC583F04A
:100F1300A3C582CCC582C583CDC583DAE6D0E0CA3A
:100F230022C008C3E096F50808A3E096420808A388
:100F3300E096420808A3E09645087001D3D0082242
:100F4300C0E0E493A3D39C5010E493A3C39C400A52
:100F5300D0E0D0E0D0E0020ED4A3A3A3D0E022706F
:100F630009080808226016181818C6C333C608C62D
:100F730033C608C633C608C633C6D5E0EA22C09FC7
:100F8300F59FE473D09F22D083D082C09FE493C0A7
:100F9300E0740193C0E0740293F59F22C0E0C0D0D7
:100FA300E8C0E0A8A8D2AFC2C7752300E8A2E792C1
:100FB300AFD0E0F8D0D0D0E0327404800A7403805C
:100FC30006740280027401C0E0F404120FD7D0E06B
:100FD300121298222521F58210AF08F521400C1535
:100FE300228008F52140021522D2AF8522832200F8
:100FF300C0D0252110AF08F521500C05228008F53B
:101003002150020522D2AFD0D022BB0102E722C079
:1010130082C08389828A83BB0003E08002E493D089
:1010230083D082226016080808C6C313C618C613E5
:10103300C618C613C618C613C6D5E0EA222521F87A
:10104300E43522F9222521FAE43522FB222521FC6D
:10105300E43522FD22C3E0C696F608A3E0C696F661
:1010630008A3E0C696F608A3E0C696F622C0E0E41D
:1010730093A36C7009D0E0D0E0D0E0020ED4A3A318
:10108300D0E022252110AF08F521400C152280085D
:10109300F52140021522D2AF22E066701008A3E0CA
:1010A30066700A08A3E066700408A3E06622E76698
:1010B30070100809E766700A0809E76670040809F2
:1010C300E76622C3E09608A3E09608A3E09608A388
:1010D300E096A2D265D03322C3E7960809E79608C3
:1010E30009E7960809E796A2D265D03322191919A0
:1010F300E70947097009E727097005E733F422096F
:1011030022C3E096F008A3E096F008A3E096F00867
:10111300A3E096F022C3E697F60809E697F60809D6
:10112300E697F60809E697F622181818E60846081F
:101133007009E626087005E633F4220822C3E49317
:101143009608740193960874029396087403939611
:1011530022E026F608A3E036F608A3E036F608A355
:10116300E036F622E627F60809E637F60809E637F9
:10117300F60809E637F622700422600D18C6C33359
:10118300C608C633C6D5E0F41822E056F608A3E035
:1011930056F608A3E056F608A3E056F622E657F6FD
:1011A3000809E657F60809E657F60809E657F6224E
:1011B300E026F008A3E036F008A3E036F008A3E049
:1011C30036F022E056F008A3E056F008A3E056F00C
:1011D30008A3E056F022E647F60809E647F60809B1
:1011E300E647F60809E647F622E4C396F608E496CE
:1011F300F608E496F608E496F622600D08C6A2E720
:1012030013C618C613C6D5E0F322C6F4C608C6F43F
:10121300C608C6F4C608C6F4C622C3E09608A3E00F
:101223009608A3E09608A3E09622C3E7960809E789
:10123300960809E7960809E7962275D00075813F5D
:1012430075210175220500020A83E6084608C313C7
:101253004608336002E633F422600C08C6C313C6A3
:1012630018C613C6D5E0F422E0F608A3E0F608A3F7
:10127300E0F608A3E0F622E6F008A3E6F008A3E60A
:10128300F008A3E6F022E7094709C31347093360CF
:1012930002E733F422CAC0E0E6F0A308DAFAD0E0AA
:1012A300FA22E8F0A3E9F0A3EAF0A3EBF022E0FAD4
:1012B300A3E0FBA3E0FCA3E0FD22EAF0A3EBF0A391
:1012C300ECF0A3EDF022E0F8A3E0F9A3E0FAA3E049
:1012D300FB22E5C754F84401F5C77901222521F51E
:1012E30082E43522F58322E7271947194719472254
:1012F300C2AF75D69F02000022E62618461846188C
:101303004622120F8AF8CD02120F8A8FCE02120FD5
:101313008ABCCE02120F8A09CF02120F8A91CF0222
:10132300120F8A4CD002120F8AAFD002120F8AF327
:10133300D002120F8A8DD102120F8A0BD202120F22
:101343008A3ED202120F8A4CD302120F8A6CD30246
:10135300120F8AC0D302120F8AA8D402120F8AAACC
:10136300D602120F8A4CD702120F8A9CD902120F8F
:101373008A20DA02120F8A25DD02120F8A59DF0250
:10138300120F8A91DF02120F8AF0E002120F8AFA1B
:10139300E002120F8A49E102120F8A1BE302120FC5
:1013A3008A1FD004120F8A53D004120F8AA6D004C6
:1013B300120F8AA9D104120F8AA6F001120F8A22F2
:1013C300F101120F8A55F101120F8A83F101120FF5
:1013D3008AC1F101120F8AFCF301120F8A1BF40177
:1013E300120F8A60F401120F8AF6F401120F8A4277
:1013F300F501120F8AD6F501120F8AAEF601120F0C
:101403008A0AF701120F8A68F701120F8AE5F701BA
:10141300120F8A1BF801120F8A66F801120F8A8CC9
:10142300F801120F8A1CF901120F8AB3F901120F86
:101433008AFFF901120F8A30FA01120F8A67FA0143
:10144300120F8AEDFB01120F8AB7FC01120F8A8774
:10145300FD01120F8AD1AF04120F8AFDAF04120FE0
:101463008A1DB004120F8A44B004120F8A8BB10490
:10147300120F8ABEB104120F8A7CB204120F8A16AD
:10148300B304120F8AE3DF04120F8AE8DF04120F9A
:101493008A1BE004120F8A49C504120F8A10C6047E
:1014A300120F8A22C604120F8A95C604120F8A0DE0
:1014B300DB04120F8A1EDB04120F8ABCDB04120F3B
:1014C3008AC7DB04120F8ADFDB04120F8AE97F006D
:1014D300120F8A29E004120F8A21FF02120F8A31A8
:1014E300FF02120F8A46FF02120F8AFAFF02120F3F
:1014F3008A0BD904120F8A8ED904120F8AF4D904E5
:10150300120F8AD27F00120F8AC9D504120F8A5094
:10151300D604120F8A59D604120F8A80D604120FEA
:101523008AC8D604120F8ADFD604120F8A0FAC04BE
:10153300120F8A1DAC04120F8A96AC04120F8A6E26
:10154300AD04120F8A31AF04120F8A80AF04120F59
:101553008ABEAF04120F8AF87F00120F8A2DCC04C3
:10156300120F8A65CC04120F8AB0CD04120F8A348D
:10157300CE04120F8A20FB03120F8A4CFB03120FB7
:101583008A90FD03120F8AD0FD03120F8A10FE0307
:10159300120F8A24FE03120F8A3DFE03120F8A2FB5
:1015A300FF03120F8AD4FF03120F8AE8FF03120FFF
:1015B3008A60FE01120F8A84FE01120F8A9DFE01CA
:1015C300120F8ACFFE01120F8AFFFE01120F8A2C1F
:1015D300FF01120F8A36FF01120F8A98FF01120FC3
:1015E3008AA7FF01120F8AB1FF01120F8ABEFF0102
:1015F300120F8AA4C204120F8AC4C204120F8A03F0
:10160300C304120F8A1EC304120F8A3DC304120FB0
:101613008AA3C304120F8AACC304120F8A09C40439
:10162300120F8A18C404120F8A3CC404120F8AFDD5
:10163300C404120F8A0AC504120F8A1BC504120FB1
:101643008AE1DD04120F8A29DE04120F8A55DE04B3
:10165300120F8A4E9A04120F8AA89B04120F8AB69D
:101663009B04120F8AC99B04120F8ADE9B04120F7C
:101673008AF39B04120F8A069C04120F8A7A9C0435
:10168300120F8ADF9C04120F8A679D04120F8AE3EC
:101693009D04120F8AA79E04120F8AB79E04120F8D
:1016A3008AC69E04120F8A48DD04120F8A6CDD0479
:1016B300120F8A94DD04120F8ABCDD04120F8AA66E
:1016C300C704120F8ACDC704120F8AEBC704120F87
:1016D3008A5EC804120F8AD1BF04120F8AEABF04BC
:1016E300120F8AF6BF04120F8A0AC004120F8A2847
:1016F300C004120F8A32C004120F8A3CC004120FB6
:101703008A4FC004120F8AD5C004120F8A4AC1043B
:10171300120F8A79C104120F8AC7C104120F8A16E5
:10172300C204120F8A31C204120F8A3BC204120F81
:101733008A4CC204120F8A8FC204120F8AD5DE04A8
:10174300120F8A20DF04120F8AC08904120F8AEA5B
:101753008904120F8A078A04120F8A1A8A04120F45
:101763008A308A04120F8A8E8A04120F8AC68A0468
:10177300120F8ABA8E04120F8AFF8F04120F8A3255
:101783009004120F8A959004120F8AF59104120F98
:101793008A1D9204120F8A329204120F8A42920413
:1017A300120F8A869204120F8AE19204120F8AF1B1
:1017B3009204120F8A99D404120F8AB3D404120F1D
:1017C3008ADBD404120F8AF4D404120F8A18D504C6
:1017D300120F8A36D504120F8A4DD504120F8A7B55
:1017E300D504120F8A96D504120F8AEEDB04120F6A
:1017F3008A32DC04120F8A4D7C00120F8A5D7C0052
:10180300120F8A627D00120F8A947D00120F8AC420
:101813007D00120F8AE77D00120F8AFE7D00120FF2
:101823008A387E00120F8A9D7E00120F8ADF7E00A7
:10183300120F8A1E7F00120F8A4F7F00120F8A7ABF
:101843007F00120F8A03D204120F8A15D204120FDB
:101853008A29D304120F8A2CD304120F8A07D804BF
:10186300120F8A3DD804120F8A53D804120F8A9597
:10187300D804120F8AA5D804120F8AE9D804120FCC
:101883008AF3D804120F8A219304120F8A649304F3
:10189300120F8AC99304120F8AE69304120F8A88DF
:1018A3009404120F8A919404120F8AD69404120F8F
:1018B3008AFF9404120F8A0C9504120F8A879504E9
:1018C300120F8A129604120F8A579604120F8AA2D5
:1018D3009604120F8A079704120F8A2A9704120F8D
:1018E3008A9B9704120F8AF09704120F8A2B98048D
:1018F300120F8A609804120F8A729804120F8A8456
:101903009804120F8AA39804120F8AAC9804120F3A
:101913008A5F9904120F8AA29904120F8AE099042C
:10192300120F8A2CDF04120F8A59D304120F8AF77D
:10193300C904120F8A2DCA04120F8A75CA04120F22
:101943008ACECB04120F8A60C103120F8A79C203B5
:10195300120F8AB3C203120F8A61C403120F8A8F54
:10196300C403120F8AF5C603120F8A35C703120F79
:101973008AD9C803120F8A69C903120F8ABDC90322
:10198300120F8A5FCA03120F8AA1CA03120F8AE3D6
:10199300CA03120F8A40CC03120F8A8ECD03120F93
:1019A3008AC5CF03120F8AF3CF03120F8A1AD0030B
:1019B300120F8A23D003120F8A7AD003120F8A15CB
:1019C300D103120F8A1DD403120F8AA4D403120F5A
:1019D3008AA0DC04120F8AB8DC04120F8AC2DC046A
:1019E300120F8A16DD04120F8AFF9E04120F8A1546
:1019F3009F04120F8AB69F04120F8AF59F04120FD9
:101A03008A12A004120F8A43A004120F8A90A00422
:101A1300120F8AC3A004120F8AFEA004120F8AF9C0
:101A2300A204120F8A61A304120F8A0DDA04120FA3
:101A33008A6CDA04120F8AAADA04120F8AEBDA0428
:101A4300120F8AF1D604120F8AAFD704120F8AB984
:101A5300A502120F8AC5A502120F8A27A602120F2A
:101A63008A31A602120F8AC2A602120F8AFEA602AA
:101A7300120F8AF8A702120F8A44A802120F8AD201
:101A8300A802120F8A50A902120F8A04AB02120F86
:101A93008A2FAD02120F8A6DAE02120F8AA9B0020D
:101AA300120F8A0DB202120F8AC4B202120F8AB049
:101AB300B702120F8AA4B802120F8A48B902120F92
:101AC3008A6DB902120F8A04BA02120F8A1ABA0275
:101AD300120F8A91BA02120F8AB0BA02120F8AD970
:101AE300BA02120F8A6FBC02120F8A90BC02120F45
:101AF3008A36BD02120F8A7DBD02120F8AEFBD0224
:101B0300120F8A7DBE02120F8AD9BE02120F8A4FAC
:101B1300BF02120F8AD0C002120F8A29C302120F0A
:101B23008AB0C302120F8ADAC302120F8A48B304BF
:101B3300120F8A16B404120F8A14B504120F8A8C7A
:101B4300B604120F8A46B704120F8AACB704120FF9
:101B53008A54B804120F8A9CAC03120F8ACBAC03CD
:101B6300120F8A43AD03120F8A46AE03120F8AA2E5
:101B7300AE03120F8A19B003120F8A35B003120F86
:101B83008A87B003120F8ACAB003120F8ADDB0032B
:101B9300120F8A2FB103120F8AEAB103120F8A645C
:101BA300B203120F8A8EB203120F8AC6B203120F48
:101BB3008A42B403120F8A1BB503120F8A64B60359
:101BC300120F8A37B703120F8ABFB703120F8A07A0
:101BD300B803120F8A21B803120F8A68B803120FD1
:101BE3008A88B803120F8A1EB903120F8AA4B90395
:101BF300120F8AFEB903120F8A42BA03120F8AD355
:101C0300BC03120F8AF6BD03120F8A32BE03120FF2
:101C13008A24BF03120F8A4CBF03120F8A4FBF03DC
:101C2300120F8A59BF03120F8A6CBF03120F8AEB7C
:101C3300BF03120F8A21C003120F8A4DC003120F74
:101C43008A74C003120F8A98C003120F8A09C10352
:101C5300120F8A17C103120F8A4AC103120F8A583F
:101C6300DE04120F8A64DE04120F8A98DE04120F58
:101C73008AE67F00120F8A829603120F8AA59603C3
:101C8300120F8AEB9703120F8A349803120F8A9C60
:101C93009803120F8AFA9803120F8AFD9803120F02
:101CA3008A499903120F8ABC9903120F8A449A0333
:101CB300120F8A479A03120F8AD19A03120F8A12BC
:101CC3009B03120F8AF59E03120F8A8EA003120F35
:101CD3008AECA003120F8A67A403120F8AA0A5033C
:101CE300120F8A0FA703120F8AADA703120F8AB828
:101CF300A803120F8A09AB03120F8AF3D403120F3E
:101D03008A9DD503120F8A03D603120F8A1CD603AA
:101D1300120F8A98D603120F8AEED603120F8A3E49
:101D2300D703120F8AA5D703120F8A1ED903120FE6
:101D33008A4CDA03120F8AD1DA03120F8AD7DC0333
:101D4300120F8AEF8504120F8A29DE03120F8AEB22
:101D5300DE03120F8A94E003120F8A3CE203120F90
:101D63008A99CB02120F8A05E403120F8AB0E402A8
:101D7300120F8A24E502120F8A6CE502120F8AB051
:101D8300E502120F8AF9E502120F8A43E602120FE7
:101D93008A7BE602120F8AF9E602120F8A53E702E0
:101DA300120F8AA7E802120F8A38E902120F8A90EB
:101DB300E902120F8AAAE902120F8AD2E902120F6C
:101DC3008AF0C602120F8A99EC02120F8AB8EC024B
:101DD300120F8A9CED02120F8ACCEE02120F8A496F
:101DE300EF02120F8A98EF02120F8AF9EF02120F15
:101DF3008A9FF002120F8A6DF202120F8A6DF302AC
:101E0300120F8AEBF402120F8ACCF602120F8A32F7
:101E1300F902120F8AE2FA02120F8AB2FB02120FC0
:101E23008A20FC02120F8A37FC02120F8A2FFD024E
:101E3300120F8A1FFE02120F8A8AFE02120F8AF005
:101E4300BC04120F8A3CBE04120F8AF9BE04120F9F
:101E53008A5DBF04120F8ACAB904120F8AE5B90456
:101E6300120F8A29BA04120F8A4FBA04120F8A7505
:101E7300BA04120F8A8DBA04120F8AF0BA04120F31
:101E83008A05BB04120F8A28BC04120F8A31BC04D2
:101E9300120F8A3ABC04120F8A43BC04120F8A4DF4
:101EA300BC04120F8A6EA304120F8A6DA704120FCB
:101EB3008A72A704120F8A74A704120F8AACCE0485
:101EC300120F8AC8FF01120F8A84DF04120F8A944B
:101ED300DF04120F8ADBA704120F8A008002120F9D
:101EE3008A338002120F8A9F8002120F8A3A81027C
:101EF300120F8AD78102120F8A1C8202120F8A3EA6
:101F03008202120F8A578202120F8A7D8202120FF7
:101F13008A9F8202120F8ADD8202120F8A218302B4
:101F2300120F8A438302120F8AA58302120F8A6C4F
:101F33008402120F8A238502120F8A958502120FDB
:101F43008A608602120F8AB38602120F8A198702E9
:101F5300120F8A538702120F8AA58702120F8A1360
:101F63008802120F8A7E8802120F8A818802120F5A
:101F73008A028902120F8A998902120F8A198A0228
:101F8300120F8A388A02120F8A9C8B02120F8AA9B7
:101F93008B02120F8AB58C02120F8AC28C02120FA7
:101FA3008ACB8C02120F8AA38E02120F8ABD8F0274
:101FB300120F8A369002120F8AA89002120F8ACA51
:101FC3009002120F8A5E9102120F8A329302120F4D
:101FD3008A099702120F8A1D9702120F8A2D970200
:101FE300120F8A379702120F8A409702120F8A49FB
:101FF3009702120F8A539702120F8A809702120FC9
:102003008AA99702120F8AB49702120F8AD89702ED
:10201300120F8AFC9702120F8A669802120F8AAC7B
:102023009802120F8AC99802120F8A469902120F58
:102033008A7D9902120F8ABC9902120F8A099A02A9
:10204300120F8A8F9A02120F8A5D9C02120F8AE086
:102053009C02120F8AC49D02120F8A2BA002120F38
:102063008A84A002120F8ACEA002120F8A29A2022A
:10207300120F8A5EA202120F8AB0A202120F8A65A1
:10208300A302120F8A14A402120F8A51A402120F80
:102093008AE6A402120F8A52A502120F8A902F0019
:1020A300120F8AC22F00120F8AF02F00120F8AC656
:1020B3003100120F8AA63200120F8AFE3200120F6D
:1020C3008A393400120F8A853400120F8AAE370022
:1020D300120F8AA13A00120F8AF13B00120F8A876E
:1020E3003C00120F8A933C00120F8AC53C00120F6A
:1020F3008A483E00120F8AF93F00120F8A8D400072
:10210300120F8AD04000120F8A4E4100120F8A6BC1
:102113004100120F8A9B4100120F8AD04100120F17
:102123008AA04200120F8A494300120F8ACF45004A
:10213300120F8AEF4600120F8ADA4700120F8A5CE9
:102143004800120F8A904C00120F8ACD4C00120FD8
:102153008A254D00120F8A584D00120F8AC24D0076
:10216300120F8AF84D00120F8A834E00120F8ADB7A
:102173004E00120F8AB24F00120F8A6B5000120FDB
:102183008A065100120F8A0E5400120F8A2A550034
:10219300120F8ACD5800120F8AC15900120F8AC438
:1021A3005900120F8AF35900120F8AF95B00120FBC
:1021B3008AD25C00120F8A155D00120F8A6B5E00D3
:1021C300120F8AAA5E00120F8A335F00120F8A670A
:1021D3005F00120F8A2C6000120F8A446200120FF4
:1021E3008AB56200120F8AF56200120F8A836300B8
:1021F300120F8AA56400120F8A676500120F8A6E98
:102203006700120F8A866700120F8A9A6700120FFF
:102213008AD26700120F8A006800120F8A7F690052
:10222300120F8AA46A00120F8A016B00120F8AB37D
:102233006B00120F8ADA6B00120F8AA16C00120F67
:102243008A396D00120F8A5F6F00120F8A946F0034
:10225300120F8AF76F00120F8A267100120F8ACEAF
:102263007100120F8AFF7100120F8A177200120F8A
:102273008AA67200120F8A5A7500120F8A327700EB
:10228300120F8A4E7700120F8A6A7700120F8A386C
:102293007800120F8A2B7C00120F8AC48601120F5A
:1022A3008AF68601120F8AE58A01120F8A318B01A1
:1022B300120F8A778B01120F8A198C01120F8A75FC
:1022C3008C01120F8ABA8C01120F8A018E01120F30
:1022D3008A158F01120F8A049301120F8A889301C2
:1022E300120F8A959401120F8AF19401120F8AE159
:1022F3009601120F8A569701120F8A609701120FE7
:102303008A6D9701120F8A989701120F8A7F98019D
:10231300120F8A299901120F8AA79901120F8AC7EE
:102323009901120F8AF09901120F8A129A01120F62
:102333008A729C01120F8A389D01120F8A7D9D01BA
:10234300120F8AFA9D01120F8AAB9E01120F8ADDCA
:102353009E01120F8A239F01120F8A5F9F01120FA2
:102363008AAF9F01120F8A03A001120F8A59A0019D
:10237300120F8AA5A001120F8A12A101120F8A8DD2
:10238300A101120F8A58A301120F8A58A401120F38
:102393008A7DA501120F8ABCA801120F8ACFAB0157
:1023A300120F8A8CAC01120F8AD0AC01120F8A80F3
:1023B300AE01120F8A94AE01120F8A9EAE01120F64
:1023C3008AA8AE01120F8AB4AE01120F8AD0AE01F1
:1023D300120F8A7BAF01120F8ABAAF01120F8AC4A0
:1023E300AF01120F8ACEAF01120F8A3EB001120F56
:1023F3008A89B001120F8A9EB101120F8AFAB101C4
:10240300120F8A7BB201120F8A3AB301120F8A4369
:10241300B401120F8A77B501120F8A65B601120F44
:102423008A7DB601120F8AD8B601120F8AF6B60159
:10243300120F8A3EB701120F8A65B701120F8A0085
:10244300B801120F8AC6B801120F8A58B901120FC8
:102453008AD2B901120F8AECBA01120F8A99BB0111
:10246300120F8AC1BC01120F8A11BD01120F8A75A6
:10247300BD01120F8AD7BD01120F8A05BE01120FCB
:102483008A29BE01120F8A5EBE01120F8A8FBE0116
:10249300120F8AC2BE01120F8AE2BE01120F8A4ACC
:1024A300BF01120F8A3EC001120F8A99C001120F99
:1024B3008AC2C001120F8A4AC101120F8ACDC1011B
:1024C300120F8AF8C101120F8ADDC201120F8A4E60
:1024D300E503120F8A86E503120F8AA7E503120F9D
:1024E3008AE9E503120F8A4BE603120F8A55E603C6
:1024F300120F8A65E603120F8AA0E603120F8A8081
:10250300EA03120F8A6DEC03120F8A53EE03120FC4
:102513008AEAEE03120F8A8CEF03120F8ADFC401DB
:10252300120F8A5DC501120F8AB9C501120F8A0401
:10253300C601120F8A1FC601120F8A4AC601120F63
:102543008A67C601120F8A73C601120F8A0AC8016D
:10255300120F8A23C801120F8AA8C801120F8ABB5F
:10256300C801120F8ADAC801120F8A7EC901120F3D
:102573008AFFCA01120F8AB2CC01120F8A48CD0119
:10258300120F8A4BCD01120F8ABBCD01120F8AD9CC
:10259300CD01120F8A70CE01120F8AB8CE01120F2D
:1025A3008ABBCE01120F8A81CF01120F8AEECF01AF
:1025B300120F8A14D001120F8A9FD001120F8ABD05
:1025C300D001120F8A03D101120F8AB7D101120F62
:1025D3008A01D201120F8A30D201120F8A8DD201E1
:1025E300120F8AC2D201120F8AEED201120F8AFC95
:1025F300D201120F8A49D301120F8AB9D301120FE4
:102603008A02D401120F8A4ED401120F8A7AD4019E
:10261300120F8A85D401120F8AA3D401120F8A8E56
:10262300D501120F8A98D501120F8AD3D501120F43
:102633008AE3D501120F8AECD501120F8A40D60125
:10264300120F8A54D601120F8A83D701120F8A9A66
:10265300D701120F8AAFD701120F8A3DD801120F8B
:102663008A82D801120F8A0ED901120F8A19D90151
:10267300120F8A5BDA01120F8A76DA01120F8AC20D
:10268300DA01120F8A31DB01120F8A6ADB01120FA2
:102693008A84DB01120F8AC6DB01120F8A96DE01E0
:1026A300120F8A43DF01120F8AB0DF01120F8AF083
:1026B300E101120F8A08E201120F8A0BE201120FE5
:1026C3008A17E201120F8A2BE201120F8A33E20109
:1026D300120F8A66E201120F8A68E301120F8AEF72
:1026E300E301120F8A5FE401120F8AE1E401120F82
:1026F3008AA2E501120F8AC1E501120F8A62E6017F
:10270300120F8ABFE601120F8AC2E601120F8AEF87
:10271300E601120F8A04E701120F8A78E701120F0C
:102723008AC7E801120F8ACDE901120F8A58EA011C
:10273300120F8A73EB01120F8A3BEC01120F8A6CA2
:10274300EC01120F8A8FEC01120F8A98EC01120F21
:102753008AC7EC01120F8A57ED01120F8A0DEE01A1
:10276300120F8A82EE01120F8A29EF01120F8A9E3D
:10277300EF01120F8AD5EF01120F8A13F001120F26
:102783008A49F001120F8A52C802120F8A998504EE
:10279300120F8A858504120F8AE48404120F8AE8D3
:1027A3008304120F8A128304120F8A1B8104120FEF
:1027B3008A6E8004120F8A008004120F8A529603D5
:1027C300120F8A489603120F8ADD9503120F8AEDC2
:1027D300E203120F8A93C702120F8A319403120F76
:1027E3008AEF9303120F8AAFC602120F8A90C602B2
:1027F300120F8A0F9303120F8AF99203120F8ABAE8
:102803009203120F8A159203120F8A0F8F03120F6E
:102813008AFD8C03120F8ACA8C03120F8A658C03FC
:10282300120F8AF88B03120F8AB78B03120F8AF0E9
:102833008A03120F8A8B8A03120F8A368A03120FB6
:102843008AD98903120F8AB08803120F8A4D88032D
:10285300120F8A978703120F8A928703120F8A86B1
:102863008703120F8A398403120F8A138403120F0A
:102873008A5DC602120F8A48C602120F8A1DC6025B
:10288300120F8A7A8904120F8A428904120F8AEB83
:102893008804120F8A548704120F8AB88303120F15
:1028A3008A638303120F8A248303120F8A1183031B
:1028B300120F8A968604120F8A068303120F8AE286
:1028C3008203120F8AF18003120F8A708003120FA2
:1028D3008A2AEA02120F8A2C8003120F8AF98504CE
:1028E300120F8A008003120F8AC2FA03120F8A841E
:1028F300FA03120F8A57FA03120F8A23FA03120FED
:102903008AC2F903120F8AAAF903120F8A86F903FE
:10291300120F8A4FF603120F8A1BF403120F8A0257
:10292300F203120F8A91F103120F8A40F103120F7F
:102933008AFAF003120F8A63F003120F8A80DD0311
:1029430000000080FB000022E4738F000100C01729
:1029530087000100BE173500040087172500020019
:102963008B17260002008D17270002008F172800FF
:1029730001009917290001009A178400040020150B
:10298300860001003E172A0001009B172B0001005F
:102993009C172C000100A0172D0008002C152E00F9
:1029A3000100A1172F000100A21730000100A31797
:1029B30031000100A4173200010034153300010077
:1029C300351534000100A51736000100361538000F
:1029D3000100A617390001009F1783000200BC17EE
:1029E300630001004215640001009D1765000100AA
:1029F3009E176D0001004315710008002415660041
:102A03000100BB1743000100AC1744000200AD17DF
:102A130045000100AF1746000200B0174700080049
:102A23003A1548000100B2174B000100B317040028
:102A33000100BF17A1000100C31737000100C2172F
:102A430088000100C1173C00010037153D0001005B
:102A5300A71749000200B4176700010044154D0091
:102A63000200B6174E000100B8174F000200B91755
:102A73003E000100AB175100010038155200010060
:102A8300A91753000100AA175400010039150000CB
:102A930000000000000136360101000102010001BF
:102AA30003010001040106060502000007010034CA
:102AB3000801000F090401010D0100FF0E080000C9
:102AC30017020000190100FF1A0100011B0100FE9B
:102AD3001C0100081D0200001F010001200100016C
:102AE300210200002301000F24020000260100013F
:102AF30027010008280200FF2A0100072B010240DA
:102B03002C0100002D0100012E0100012F0100FF07
:102B130030010B1D310800003A0100083B01000F92
:102B23003C0100013D0100FF3E040000420400009F
:102B3300460400004A0400004E0400005204000052
:102B4300560400005A040000000000002001C28661
:102B5300000001002001C386000002002001BE86A0
:102B6300000003002001BF86000004004201C68567
:102B730000000500420192850000060042015485D1
:102B8300000007003001C086000000404201548568
:102B93000000FDFF2101BA86010020002005461731
:102BA30001002100200547170100000221054817F5
:102BB300000400002105161402040000290508146E
:102BC3000304000029050A140304100029050C144A
:102BD30003041400280158170504000021050E14EE
:102BE3000804000021051014080400022105121432
:102BF30008040102210548170103710301030103BE
:102C03000103010301032203020301031003000371
:102C13000003000300030003000300034203000357
:102C23002403060300030003040312032503230301
:102C330025032303040304030003000300034403E5
:102C4300000300032303000365032100350381030D
:102C5300000305030003000300030003250323030C
:102C630003027102300160021102700201020202CA
:102C730002028002100261023A0041006302730201
:102C830072026202430200021302380000020002D1
:102C93000402120200020002000200020402040203
:102CA300370037003C0244020002390000020002F0
:102CB30065020002350281020002050282028302DC
:102CC3000002010171010101010111010101310141
:102CD300010101018001100161013B001400630146
:102CE30073017201620143010001130106013D01F9
:102CF300350004011201000100010001000104017B
:102D03000401330133013C01440132013600000167
:102D13000001650100013500810100010501820107
:102D23008301000103007100300160001100700095
:102D330031022003500480001000610000001400E1
:102D4300630073007200620043000000130006007A
:102D5300000000000400120000000000000000005A
:102D630004000400370037003C0244000000000068
:102D73000000000065000000350081000000050030
:102D830000008300000036000100060000000F0071
:102D930000000000000000000000000003FFFF002F
:102DA300000403FFFF0000FFFF0FF4010005C4044C
:102DB3000320000100000B000000000000000003DE
:102DC300010F0000000000000000000000000000F0
:102DD30000000000000000000000000000000000F0
:102DE30000000000091B271B0F1B6D1A00000000C9
:102DF300000000000000000000000000151B6D1A19
:102E0300000000001B1B6D1A000000000000000002
:102E1300211B6D1A000000000000000000000000EC
:102E2300000000000000000000000000000000009F
:102E3300000000000000000000000000000000008F
:102E43000000251D0100251D02009B1C0280951C0E
:102E53000300A11C0400A71C0480AD1C0500B31CC7
:102E63000600BF1C3100D11C3300D71C3400DD1C0D
:102E7300FFFF0000030003000400080010001F0010
:102E83003E007B00F600EC01D703AF075D0FB91ED0
:102E9300713D000007ECFDFDFDECDCDCCCBCACAC13
:102EA3009C9C8C7C7C6C6C5C5C5C4C4C3C3C2C2C0F
:102EB3001C1C03EAF5E5D5D5C5B5A595958585759E
:102EC30075656555554545353525251515050A138C
:102ED3002302DD2205E92207E3220CC5220DD122BC
:102EE300FF000000160F00000B150B020002220F5B
:102EF3003300000E0F5A6967426565416C6C696166
:102F03006E63653039D0D1D2D3D4D5D6D7D8D9DAF8
:102F1300DBDCDDDEDF303016181920231A1C1E30EF
:102F230000034D4C4651181A2505020001191618C5
:102F3300161618230300303017181921301B1D1FD4
:102F430030003C40423A3F3F392F47300C0E020BD2
:102F5300040B0A0708000F02040201010101090220
:102F63000204000029051414E803000000BE040A4B
:102F730024000300E803010009100116031E1E03C9
:102F83000A0C04050828020C050815FF0FC082C0AF
:102F9300831213B990156D74B5F0A37420F09015D6
:102FA3006F74BBF0A37420F090157174C1F0A37417
:102FB30020F090157374C7F0A37420F0025CCB74F7
:102FC300F7120A17901561E4F0E9901560F07C3A66
:102FD3007D157A627B15121A3D9017B2E090156A3F
:102FE300F090156B7424F0A37415023F5874F0121B
:102FF3000A17EAFEEBFF54807003023161901560FB
:10300300123FED700302315AEA241B125858707CA8
:10301300EA241F12585864137002A3E0706E8A8268
:103023008B831231AF90157B124DEA750A00750B35
:1030330000800D123E2E126ECA121941AA0EAB0F5A
:10304300EA4B60488A828B83E0650C7004A3E065D9
:103053000D702C8A828B83A3A3A3A3E0F50EA3E0B8
:10306300F50FE50A450B8A828B83A3A3A3A360C351
:10307300124130850A82850B83A3A3A3A380B78A59
:103083000A8B0B8A828B83124DE680B4E508242ACF
:10309300125858FCE5082402F8E43509F9E8FAE97E
:1030A300FB90157B123296A3A3E06402703C8A82E4
:1030B3008B83124DEA800B88828983A3A3A3A31277
:1030C3004130E849601F88828983E06A7003A3E086
:1030D3006B70E488828983A3A3E06C70DA9017B8DD
:1030E300125B88806BECF91220F1850882850983D5
:1030F300E06401704FE5082418123198120FC812CA
:103103006472120E03E5082412123198120FC8E5F7
:1031130008123FE1120FC4E508240B126476120E65
:1031230007E5082417123F7EE5082402FCE435096D
:10313300FDE5082419FAE43509FB12291F740A1264
:103143000FF2800CE064027007AA08AB091221CFCA
:10315300AA08AB091218ABEEFAEF6480802DEA548B
:1031630002600C9017C77401F0EA6402FA8023EA44
:103173005408601A1220EBEA4B700B90157D126312
:103183004D7A081231A5EE6408FAEFFB80047A0049
:103193007B00026AFCF582E43509F583E0F50A78E1
:1031A3000A22FB901560E0F9121A0D22A3A3E0F5A1
:1031B3000CA3E0F50D227B00901560E0F9121A01D3
:1031C30074042274F4120A178A088B098A828B8387
:1031D300A3A3A3124BE2123F8938F583E02409FA33
:1031E300126A9470030232898A828B837402124CAE
:1031F30057850882850983123296E8F0A3E912679E
:103203000E8A828B83A3A3A3A3A3A3A3A3F0E5089E
:103213002403F8E4350912328B123F893AF583E02F
:103223008E828B83A3A3A3A3F0EE2409FAE43FFBCE
:103233008E828F83A3A3125E3AF5838882E0A2E590
:103243008E828F83A3A3A3A3A3500474018001E4FC
:10325300F0E5082403F5828983124DEAEA12536BE1
:103263003BF583126A5B120FC0123F883B125F2C3F
:103273008E828F83A3A3127C0A120FF2EEFAEFFB66
:10328300901560126AE18016F98882F583E0FAA34B
:10329300E0CA22124F87A3A3227402120FF27F0403
:1032A300020D3874F2120A178A088B09ECFAEDFB47
:1032B300740E1212E0E0FC1213EF8A0C8B0DAE0CAD
:1032C300AF0DEA4F6030AC08AD091213DDE960269B
:1032D300AC08AD09EEFAEFFB1213E3E970148E822A
:1032E3008F8312411DFAEFFB1213D7AA08AB091201
:1032F30014077900800279B4024ED674F0120A17CB
:1033030074F6121086EAFEEBFF8C088D09750FB375
:10331300852182852283E4F0750E008002050E90DC
:103323002F86E493F8E50EC3984003023425AA0ED2
:103333007B0012142B8A0A8B0BEA4B60E08A828B88
:1033430083A3A312342C28F0F8C3EE98EF94005013
:10335300CC7C157D007900AA08AB09121893850A65
:1033630082850B83A3A3A3A3126F07E0F8EEC39890
:103373002925E0F8E433F9E50A28F582E50B39F568
:1033830083A3A3A3A3A3A3123F93A31259AF8A0CAE
:103393008B0DAC0CAD0DAA08AB09121A3D850A8240
:1033A300850B83A3E06401700A1264727401123FF7
:1033B300A580447401121050850A82850B83124D37
:1033C300E8121413E9603D74091212E0E0C0E01240
:1033D3006472D0E0F074091212E0E06403701374B5
:1033E30001121050E508240BFAE43509FB121A3DCB
:1033F300801274011212E0124130E508125995351A
:1034030009126EC8850A82850B8312647E123FA55A
:10341300A3A3E0C0E0E5082414126476D0E0F075BD
:103423000F00A90F740A026AF9A3A3A3E0F8852188
:1034330082852283E02274F7120A17E9FE8A828BBF
:1034430083A3A3A3A3A3A3E0540860338A828B833B
:10345300A3A3A3A3A3A3E0540260218A828B83A323
:10346300A3A3A3A3A3A3A3A3E06406600F74E96EBD
:10347300600A74CD6E600574F06E70031220D3027F
:1034830047D574F0120A1774EF121086740F1212D4
:10349300E012623174081212E0E9F0ECFEEDFF7401
:1034A300051212E012459D1247C1A3E0F91213FB66
:1034B30074061212E012623174061212E01253FC07
:1034C3007003023740123FCDE0FA74061212E0E0B7
:1034D300F91220131237A0F8A3E0F9E849700302A8
:1034E3003740EE2403F50AE43FF50BEE2406F50816
:1034F300E43FF5097C00850882F583124DEA850ACD
:1035030082850B83E0F912140174031212E0126234
:1035130031850A82850B83E0C0E085218285228381
:10352300123799D0E0125511F98521828522831231
:103533003E3512506312342FFAA3E0CA2407F582F2
:10354300E43AF583E8F0A3E412623C2406F582E44E
:1035530038F583E4126ED4124BD6120FC0EE123F2D
:10356300893F125F2C74031212E0124BE2240912FA
:103573007C04120FF274291212E0126F01123290BE
:103583001255243A126EC8742B1212E0E0C0E08583
:1035930021828522831253C3D0E0F074021212E019
:1035A300E4F074251212E0780812126B0236977455
:1035B300031212E0125EF48882F583123788A3A304
:1035C300A31259BAFB121419850E82850F83A3EA3D
:1035D300F0A3EBF074031212E0123799A3123788A9
:1035E300125BC9A2E6500F850E82850F83A3A3A3A6
:1035F300A3A3E0D2E1F074051212E0E0706B850E34
:1036030082850F83A31241309015BBE0687003A33A
:10361300E0697055850E82850F83A3A3A3123F68CB
:10362300750C00780C120FC87808120FBC7429129D
:1036330012E0E0F50C780C120FC874271212E01296
:103643000E079015C8120E07790074191212E012B2
:103653004DBA122217740A120FF2850E82850F8358
:10366300A3A3A3A3A3E04405F074021212E0E004B1
:10367300FC8E828F83124DE48E828F83A3A3A3E0FB
:10368300F912140174031212E0126231740212125D
:10369300E0E004F074031212E01253FC606774025A
:1036A3001212E0E0FA74061212E0124130C3EA98F3
:1036B300E499505174021212E0123A728521828504
:1036C3002283E028F8A3E039F9E8240FF50EE43962
:1036D300F50F850E82F583E4F074031212E01237BE
:1036E30093640160030235B274051212E07401128F
:1036F3006AE7F074031212E0125CBB123A95E8F029
:10370300A3E90235D6852182852283124DEA122050
:1037130019852182852283120E0774261212E0E096
:10372300FD74251212E0E0FC740A1212E0E0F9EED7
:10373300FAEFFB1220CD7402120FF280438E828FB8
:1037430083A3A3A3E0C0E0740C1212E0D0E0F01254
:103753006950E0C0E0740D1212E0D0E0F07406127C
:1037630012E01253FC7009740E1212E074B9800750
:10377300740E1212E07410F0740912104812221120
:103783007411026AF9E0850E82850F83A3A3A32235
:10379300E01254E9E022E01254E9A3A32285218236
:1037A300852283EAF0A3EB1254052274F0120A1760
:1037B30074E112108674041212E0E9F07403121219
:1037C300E0ECF074021212E0EDF08A0E8B0F742F0E
:1037D3001212E01231B1AA0CFB122007740112126B
:1037E300E0E9F0AA0CAB0D12200D74011212E0E017
:1037F3007003023A6D852182852283E480158E82CF
:103803008F83A3A3A3A3A3E0D2E3F0852182852220
:1038130083E004126A3FF8852182852283E0C398FE
:103823004003023A6474011212E0E07003023A6446
:10383300852182852283123A72E50C28F8E50D3939
:10384300F9E8240FFEE439FF8E82F583A3A3A3A333
:10385300A3E0A2E040B5750800750A08750B007473
:10386300021212E0E060037508207C087D007900F5
:1038730074051210481218938E828F83E0603E9075
:10388300160BE06401701AE508D2E3F508750B1016
:10389300123A821212E0E8F0A3E91258AD74FF80E5
:1038A3007643080C750A0C8E828F83A3123A8D120D
:1038B3006ECA74051212E074FFF0A3805A740412E6
:1038C30012E0E06009E508D2E6F508750A0A8E827F
:1038D3008F83A3E064FE7003A3E0F47030741212CC
:1038E30012E0740412649CF8741D1212E0E8124C86
:1038F300577412121048121F357D007C0079007432
:10390300151212E0AA82AB83121D0D800B123A82AC
:103913001212E0E8F0A3E9F074071212E0E508F0F0
:10392300123FC4C0E074091212E0D0E0F0740A122E
:1039330012E07401F074051210481221D5741112AB
:1039430012E0E06003023A42740D1212E012550CC9
:103953008E828F83A3A3A3A3F0740D1212E0124CE3
:1039630025E50AF0A3E50BF074031212E0E0C0E0D2
:10397300124BB6D0E0125BC9601190160BE0C0E0A9
:10398300740D1212E0124C00D0E0F0740D1212E02C
:10399300124130850C82850D83A3A3A3A3A3123AFE
:1039A3007B241C12622B126EE4123A7D125B7B396C
:1039B30012696FC0E0124B9DD0E0126A34C0E0740C
:1039C3000D1212E01246E3D0E0126735C0E0740D29
:1039D3001212E01246D9D0E0F0740D1212E0123A3E
:1039E3008D123A7B242A12622B850E82850F83A3C4
:1039F300A3A3A3A3A3A3A3E0126224123FB3C0E033
:103A03001246C5D0E0F0740D1212E0124DEA850E95
:103A130082850F83126A4A2428F582E43B126EC81A
:103A2300123FBC126A5B120FC0125F25EA1261BD1E
:103A33003B127C08120FF274051210481221DB8E20
:103A4300828F83A3A3A3A3A3E0D2E0F07411121285
:103A5300E0E0600302380174011212E0E01402385E
:103A63000D7900AA0CAB0D1220D9741F026AF9E07C
:103A730075F007A4F8A9F022A3A3124DEEE8228E55
:103A8300828F83A3124134740522E0123A95A3A3D3
:103A9300A322F8A3E0F9850E82850F83A32274F095
:103AA300120A1774E8121086E9852182852283F0B1
:103AB3008A0E8B0F8A828B83A3A3A3A3A3A3A3A39F
:103AC300E0F91220318A088B09EA4B7003023B7E2E
:103AD300E50E12537F123FDC123F7385218285224C
:103AE30083E06003023B817C04850E82850F83A300
:103AF300A3A3A3A3A3A3A3E0F9122037EE4F607BF4
:103B03008E828F83A3A3A3A312413074071212E002
:103B130012636212413074091212E0124C87C0E042
:103B230074111212E0D0E0126713A3A3A3A3A3A3FB
:103B3300A3124130740F1212E0126ECA74121212E1
:103B4300E0E4126AEFC8241FF582E438F583125EBD
:103B5300F0C413135403FC70027C048E828F83E041
:103B6300F97808120FC4742059FD744059F974038D
:103B73001210481220CD7402120FF2026AF77C0869
:103B8300850E82850F83A3A3A3A3A3A3A3A3E0F915
:103B93001220378B0BEA4B7003023AFFEE4F60DBC8
:103BA300852182852283E0F50C780C120FC88508E5
:103BB30082850983A3A3A3A3A3A3A3E0F50C780C95
:103BC300120FC88A828B83A3A3A3E0FB8A82850B8F
:103BD300831277278A82850B83E0FA8E828F83A3F1
:103BE300A3E0F91229257402120FF2023B0374F7C2
:103BF300120A1774FA121086E9FE780179017F0020
:103C0300800379000F124F66E0FCEFC39C5026EF50
:103C130075F007A4FC85F008AD08EA2CFCEB3DFD2C
:103C2300124555E0A2E050DA540C60D6E0A2E2500F
:103C3300D3780080CF8A828B83A3A3A3A3A3A3E01B
:103C4300703DE9A2E0400574016E70338A828B8374
:103C5300A3A3A3A3A3A37401123F45E0C0E074038D
:103C63001212E0D0E01245B4E0C0E074041212E096
:103C7300D0E0F074051212E0E8125E8F1222117484
:103C8300060247D2C082C08379011220D9025CCBDD
:103C930074F4120A17EA4B9017C76019E4F08A0804
:103CA3008B09F50AF50B7808120FBC7A021231B9A9
:103CB300120FF2800A7401F07A027B001231A6021D
:103CC30032A174F0120A1774F312108674031212DD
:103CD300E0E4F0A3F090157B123F7374011212E03D
:103CE300E4F0A3124C5C04F09015B5E0A2E350039A
:103CF300023DB8123F3974091212E01212A5740979
:103D03001212E0780812126B90157D780812105881
:103D130074051212E0780812127A123E3C740512EE
:103D230012E0780812121D50077A017B00023E2927
:103D330074051212E0780C12126B9017B7E0F509B4
:103D4300780C79081209A8A80CA90D9017B8E0C33C
:103D530098E4995003E08001E8852182852283F06D
:103D630074091212E0780812126BC008C009C00A65
:103D7300C00B74051212E0780C12126B123E3C78E1
:103D83000C79081209A8E4F50AF50BD00FD00ED070
:103D93000DD00C780C790812111890157D780C123F
:103DA300127A8011123E2E126ECAEEFAEFFB12192E
:103DB30041AE08AF09EE4F60658E828F8312342CBB
:103DC300C398502DEE2403F8E43FF9E0FA88828982
:103DD30083E0C39AF0602374031212E012429674D4
:103DE300011212E0EEF0A3EF12637DFEA3E0FF8069
:103DF300C48E828F83A3A3A3E4F08E828F83127B6E
:103E0300C174011212E01253FC8E828F83A3A3A309
:103E1300A360911263561212E0123E358089740337
:103E23001212E0124DEA740D026AF9124134901530
:103E33007B22125F1BA3A3A3229017B6127BC9E4B4
:103E4300F50AF50B2274F0120A178A088B09890AFE
:103E53007800790090157B123F73FBEE4B601E08D0
:103E63008E828F83A3A3A3A3124DB4601008E870BE
:103E730001098E828F83123F6FEA4F70E39017B967
:103E8300124DEAC3E89AE99B4003023F2C7A0612DB
:103E93003F2FA80CA90DEA497003023F2C8A828B9D
:103EA30083E508F0A3E509123F4EE50AF09017B841
:103EB300124F6E123F45A3E4F0A3F090157B124D11
:103EC300B4600D8E828F83A3A3A3A3126ECA80173F
:103ED30090157B126ECA9015B5E0A2E34009123F1C
:103EE3003990157D1212A59015B5E0A2E3503A7AE8
:103EF300087B00901560E0F9121A13EA4B4C4D70E1
:103F0300289017B6E0F508A3E085080CF50DE4F555
:103F13000EF50F780C120FBC7A087B00901560E049
:103F2300F9121A077404120FF2026AFC7B001219C9
:103F33003B8A0C8B0D22121A25EAF8EBF9ECFAED09
:103F4300FB22123F4922123F4EA322F08A828B8327
:103F5300A3A322E508F00247D5F08E828F83A3A3A3
:103F6300A3A3A3A322125866A3A3F022A3A3A3A3EC
:103F7300E0FEA3E0FF227F05020D38F582E4350958
:103F8300F583E0F922EA123F8D222410F582E42220
:103F9300123F9BA3A3A3A32212413885088285095C
:103FA3008322123FA922F0850A82850B83A3A322D1
:103FB300E50E2411123FD9E022E50E240E123FD95B
:103FC30022E50E2410123FD9E022123FD122EE1235
:103FD3003F8D3FF58322F582E4350FF58322240FCD
:103FE300F50AE43509F50B780A22E0F91218BD8ABF
:103FF300088B09EA4B2274F2120A17890B8A088B81
:10400300098A828B83124DEA1220FDEA4B60047900
:10401300B8806A122109E9F8902F7CE493F9E8C388
:1040230099400479B280567A15123F2FAE0CAF0D2A
:10403300EA4F7004791080458A828B83E4F0A312DF
:104043003F4EE50BF0750A007808120FC07C127D15
:1040530000EA2403126A06120FF29015811253FC30
:104063007008901581800C12413088828983124038
:104073008370F4EEF0A3EFF012211B7900024ED609
:10408300124DEEEA4B8882898322C082C083901549
:104093008180048C828D83127728EC4D60288C827A
:1040A3008D83A3A3E069600574FF6970E68C828D3C
:1040B30083A3A3A3E06A7003A3E06B70D6EC24038D
:1040C300FAE43DFB80047A007B00025CCB74F712B8
:1040D3000A17E9FD74FE6D70047C0180027C009078
:1040E300158180096D70027C01888289831253FCDB
:1040F300601F88828983A3A3A3E06A7003A3E06B94
:1041030070E7ECA2E088828983A3A3E050D6F9800C
:104113000279FE0247D5EEF9800CA3A3127BC9EE08
:10412300227402120FF27F02020D38F5831241341A
:104133002212413822E0F8A3E0F9221241388E829C
:104143008F8322120FF27F03020D38C082C083795E
:1041530000901581800109E0FAA3E08A82F583E5E6
:1041630082458370F1025CCB74F6120A17E4F508FA
:10417300F5097808120FC4902F7CE49375F013A40B
:10418300A9F012428B126F28120FF2E9FE74096E26
:10419300700312211502411974F6120A1774FE12E4
:1041A3001086852182852283E4F0A3F0A821A92229
:1041B300880889097808120FC47508027509007800
:1041C30008120FC4126B99120FF202412474F512F4
:1041D3000A1774EB121086852182852283E4F0A3EB
:1041E300F090158180748E828F83A3A3E0C0E07466
:1041F300021212E0D0E01258ADA982AA8389088A7C
:1042030009750A007808120FC07C127D007406122B
:1042130012E0126EED120FF2740212104088088938
:10422300097808120FC47508137509007808120F6E
:10423300C474041212E012539F75F013A4F8AAF089
:1042430075F013E9124287126BA1120FF2852182D6
:104253008522831242968E828F83123F73EE4F70B4
:1042630085A821A922880889097808120FC475082E
:10427300027509007808120FC4126B99120FF274B9
:1042830015024146A42AF9E82402FCE439FD7A42E6
:104293007B0022E02401F0A3E03400F02274F41246
:1042A3000A1774EB1210867E007F00A821A92288CA
:1042B3000889097808120FC47508028E0978081254
:1042C3000FC47C007D007A42126F34120FF2E97042
:1042D3006C8E0880567402121040880A890B780A83
:1042E300120FC4750A13750B00780A120FC4E50880
:1042F30075F013A4F8AAF075F013E50912428712BA
:104303006F36120FF2E9701B74031212E0AA82AB2C
:104313008374021212E0E0F91220F7E970050EEE41
:1043230070010F0508E508700205098521828522C1
:1043330083124130C3E50898E509994098EEFAEFF6
:10434300FB741502329E74F6120A178C828D83A3B6
:10435300A31245A2F0EA1261C33BF583E0C0E01269
:10436300455FD0E0F0EA241DF582E43B12412E12B2
:10437300454312459DF0A3F0EA241FF582E43BF583
:1043830083123F73EC1245363DF583EEF0A3EFF055
:1043930012453C3BF58312456DA3A3A3A3A3A3EE50
:1043A300F0A3EF125E1EFE8C828D831245AC740364
:1043B3005EFEC394034003024529EE600874026E57
:1043C300600302444E8C828D83E0540CFE740C6EA9
:1043D300700302448DE0A2E4400D88828983E08C5F
:1043E300828D83A31245C274086E600302448D124A
:1043F300454D7401F08A828B83A3A3A3A3A3125810
:104403007370148C828D83E0440C1245B4A3A31201
:10441300456DEEF0A3EFF08C828D83E0A2E4402B98
:10442300888212457B124590500109F58212457B23
:10443300A3A3A3A3A3A3F0A3EF1245BC8C828D83F4
:10444300A3A3A3F0E82403F850010988828983E039
:10445300C0E0EC2411F582E43DF583D0E01245ACD5
:104463008C828D83E0A2E7507588828983E0FE8C7D
:10447300828D831245C274FC5E700C8C828D83A383
:10448300E054036403701E02452912454DE4F074A1
:104493000C6E60030243F8888212458112459050E6
:1044A300010902441A8C828D83A3E054036032888D
:1044B300828983E0C0E0EC1245673DF583D0E012CA
:1044C30045C38C828D83E05403640270148882890F
:1044D30083E0C0E0124555D0E01245C38003A3E456
:1044E300F0EC12536B3D126EC8EC2410FEE43DFF5A
:1044F300EA241DF582E43BF583E0F5088E828F8381
:10450300E0C3982508F508F0EA2417F8E43BF98896
:1045130082F583E0C39508C0E0124543D0E0125E04
:104523001EC39508500A124543E4F012455FE4F0B8
:104533000241292415F582E422EA240DF582E422BE
:10454300EC240DF582E43DF58322EC1255243DF570
:104553008322EC2414F582E43DF58322EC123F8D93
:104563003DF583222413F582E422E0FEA3E0FF8CD1
:10457300828D83A3A3A3A322124581A3A3228983AC
:10458300E0F508A3E0FFE5088C828D8322A3A3A3B3
:10459300A3F0A3EFF0E82402F8221245A2A322E439
:1045A300F08C828D83A3A3A3221245CAA882A98378
:1045B30022123F49A3A3A3A3221245CAA3E022A325
:1045C3001245CA08A98322125E27A32274F4120A91
:1045D3001774F31210868A0A8B0BECFEEDFF8C82A4
:1045E300F583E0540CF508E0A2E75006E508D2E7AE
:1045F300F508E508D2E1F5081258737006E508D20C
:10460300E4F508E0A2E55006E508D2E5F5087C08E4
:104613007D007900AA21AB2212189374021212E0D2
:10462300E508126ECEC0E074031212E0D0E0124C23
:104633005CE50AF0A3E50BF074051212E012673A89
:104643001212E0E0707774081212E0124BE2125E6D
:104653001038126755C0E074081212E01246E3D016
:10466300E0126735C0E074081212E01246D9D0E0B8
:10467300F074081212E01246CFE0124C0A124C8B6F
:10468300126224EE241112583FC0E01246C5D0E056
:10469300F0EE241412583FC0E074081212E0124BDB
:1046A300E22435F582E438F583D0E0124C2FC0E0E4
:1046B30074081212E0124BE6D0E012648E740D02FD
:1046C300329EE82432F582E439F5832212413EA377
:1046D300A3A3A3A3A322124BF612693438F58322B2
:1046E300124BF62426F582E438F5832274F7120A76
:1046F300177E008A828B83A3A3A3A3A3A3A3A3A34D
:10470300E0640460030247B112551CE060030247F2
:10471300B112537E3B1253FA70030247B188828968
:1047230083E0540360030247B1E812552439F5834B
:10473300E0FA8C828D83A3A3E0FBA3E0CB2411F5E5
:1047430082E43BF583E06A706588828983A3A3A32F
:10475300A3A3A3A3A3A31247B5E06A7003A3E06BCB
:10476300704C88828983A3A31247C1E0FFA3E0CFE3
:10477300240612583F6A7003A3E06B703188828964
:1047830083A3A3E0F88C828D83A3A3E0F9A3E0F5D0
:10479300838982A3A3E06860138C828D83A3A3A380
:1047A300E0F5838982E0540C640470027E01EEF923
:1047B30080201247B922124DF28C828D8322A3A34B
:1047C3001247B9A3A322740C1212E0E0F9740D127C
:1047D3000FF27F01020D3874F6120A1774FC1210DF
:1047E30086EAFEEBFFECFAEDFB8C82F583A3E05443
:1047F3000360169015771253FC60597900EEFCEFB5
:10480300FD12601B12294B804B852182852283EE8A
:10481300F0A3EFF074021212E0124C51AC21AD225E
:104823007A337B2112235B8A088B09A808A909EA3A
:104833004960218A828B83A3A3A3A3A3A3A3A3A3D6
:104843007406F07A0088828B83124BE21261E4E0F3
:10485300F91222B9740402412674F2120A1774F38E
:10486300121086EAFEEBFF8A82F583A3A3A3A3A318
:10487300A3A3A3A3A3E0F50A9017C7E0700579BA31
:10488300024B9A750801750900750C00750D007CC3
:10489300087D007900AA21AB221218937405121225
:1048A300E07401124C645404601274021212E0E0CA
:1048B300D2E6124C6454087003750803E054106088
:1048C3000674404508F508E0540860227402121289
:1048D300E0E044C0124C645420600A74031212E0F6
:1048E300E0D2E0800874031212E0E0D2E1F0EE249B
:1048F3001512583F124BCA7003740169700674088D
:104903004508F5088E828F83A3A3A3A3A3A3A3A320
:10491300E070161223B585218285228312623174D9
:10492300021212E0E0D2E28030640F7010740212BF
:1049330012E0124C6C74044508F508807F8E828F58
:1049430083A3A3A3A3A3A3A3A3E064028E828F8361
:10495300700A126F01E8F0A3E9F08060A3A3A3A398
:10496300A3A3A3A3E06403700DAC21AD22EEFAEF81
:10497300FB12216980468E828F83A3A3A3A3A3A3E3
:10498300A3A3E06401703590160BE060107402126B
:1049930012E0124C6C750910750AFF80187402122C
:1049A30012E0E0440C124C5C74FDF0A374FFF0744D
:1049B300044508F5088E828F831231B1EE24151257
:1049C300583FA2E0503F74021212E0E0540C701BF7
:1049D3008E828F83124DEA121DD9E9700579BB02CD
:1049E3004B9A74021212E0E0D2E5F0EE241512584D
:1049F3003FA2E0501074021212E0E0540C64047001
:104A030004E0D2E5F0EE241112583FC0E074041222
:104A130012E0D0E012673C1212E0E06003024B9315
:104A230074081212E0124C25E508F0A3E509F01210
:104A33004BC0E0C0E0124BB6D0E0F0124BA7E0C091
:104A4300E074081212E0124BE212456738F583D086
:104A5300E0124C8B6401701190160BE0C0E07408F7
:104A63001212E0124C00D0E0F074081212E0124C63
:104A730020124BB1FAE8241CF582E439F583EA12DB
:104A83004C57EE2415FAE43FFB8A82F5831277280C
:104A9300E8125B7B39F583124C51EE241C12583F0C
:104AA300C0E0124B9DD0E0125CC1124BCA7003747C
:104AB3000169701374081212E012550CFAEE241DEA
:104AC30012583FF912203D8E828F83A3A3A3A3A381
:104AD300A3A3A3A3E0C0E074081212E01246E3D03C
:104AE300E0F074081212E01246D9E50AF0740812D5
:104AF30012E012539F2428F582E439F583E50CF084
:104B0300A3E50D124C37124C0A1258B8126224EE68
:104B1300124BB1C0E0E82433F582E439F583D0E0E9
:104B2300F0EE241B12583FC0E074081212E0124B3F
:104B3300E6D0E0F0EE241A12583FC0E074081212D7
:104B4300E0124BE22432F582E438F583D0E0124CD4
:104B53002F124BD6120FC012693A127728740B1218
:104B630012E0124BE2242F127C04120FF2EE2415F2
:104B730012583F544060129015971253FC600AAAD2
:104B830021AB2212601B12294BAA21AB221221DB7B
:104B9300740C1212E0E0F9024ED1E82420F582E40D
:104BA30039F58322EE2419F582E43FF58322126955
:104BB30049E022E82412F582E439F58322EE241831
:104BC300F582E43FF583225480F8A3E05401F9749D
:104BD300806822F508A3E0F509750A007808221217
:104BE3004BF622124BF62434F582E438F58322A3E4
:104BF300A3A3A3124BFA22E0F8A3E0C822124BF6B8
:104C030012453638F58322FAA3E0FBE8242AF5821D
:104C1300E439F583EAF0A3EB22A3A3A3A31241345F
:104C2300EE221253A312538339F58322F0EE241399
:104C33001258C022F0EE240D1258C022E0FC8A82E2
:104C43008B83E02CFCA3E03400FD8A828B83ECF0A1
:104C5300A3EDF022F0A3E4F022F0852182852283E4
:104C630022F0EE24151258C022E0D2E3F0124C7465
:104C7300228E828F83124138852182852283E8F038
:104C8300A3E9F022E8F0A3E9126377E02274F712B4
:104C93000A178A828B83A3E0640170047E63800217
:104CA3007E648A828B83E060087905124CC424F306
:104CB300FE9015B3E06007F9124CC424F2FE0247DC
:104CC300B1122283E9F8EEC3982274F6120A17741C
:104CD300FE121086852182852283126231E9FEEC61
:104CE300FAEDFB9005C21253FC6032A821A9228879
:104CF3000889097808120FC47D01740E1212E0E0CE
:104D0300FCEEF99005C212620512294B7402120FD0
:104D1300F2EA4B60047900800679B2800279B60228
:104D2300412474F7120A17E9FE90156D1253FC60C3
:104D33001F74091212E0E0F5087808120FC8EEF9A3
:104D430090156D12620512294B7401120FF2800245
:104D530079B60247D574F7120A178908ECFEEDFFFE
:104D630079B5E508245E602014600624F860348079
:104D73003D9005C4124DB46035126F4512294B8E18
:104D8300828F83126231802490156F127728EC4D45
:104D9300601CEEFCEFFD90156F12620512294BE9C2
:104DA300F9800B90156B124DBA121A3D7900024728
:104DB300D5124DEEEA4B2212772CEEFAEFFB22745A
:104DC300F7120A17E9FE79B574AB6E700B90156B89
:104DD300124DEA121A3D79000247D58E828F83A3C2
:104DE300A3A3A3A3A3A3A3124DEE22124DF222E089
:104DF300FAA3E0FB2274F1120A17EAFEEBFF8C0A16
:104E03008D0B7508019015BBE06E7003A3E06F7006
:104E13000C124EC5AA0AAB0B121A3D805E1223BBBD
:104E2300EE6A7002EF6B7009AA0AAB0B1223C18002
:104E33004AAC0AAD0BEEFAEFFB121F11E9F508902D
:104E430017BEE07036122859E97030E508702C90CF
:104E5300158BE06E7003A3E06F7020EE4F601C753E
:104E63000C83750D15750E00780C120FC07C087D30
:104E730000AA0AAB0B126EF1120FF2A908027824F2
:104E830074F2120A17EAFEEBFF8C088D09750A010A
:104E9300124EC5EEFAEFFB121A37E9640170119056
:104EA30015BB124130850882850983126ECA800EB4
:104EB300AC08AD09EEFAEFFB121F17E9F50AA90AD0
:104EC30080111223AF8A0C8B0DAC0CAD0D22740D27
:104ED300120FF27F06020D3874F6120A17EAFEEB80
:104EE300FF7A0D7B0012193BEA4B6062EE24241219
:104EF3006BCEF0EE2425126BCEA3124F93126BD41C
:104F0300A3A3126967124F6EF0EE124F54124F8330
:104F1300E8F0A3E9124FAA124F7B126ECAEE124FAA
:104F23005D126A2AA3A3A3A3F0EE243312583FC051
:104F3300E0124F66D0E0126759124F7BA3A3A3E898
:104F4300F0A3E9124FA2C0E012551CD0E0F00241D9
:104F530029242AF582E43FF58322242EF582E43FB7
:104F6300F58322EA1259953BF58322124F7222E010
:104F73008A828B83A3A3A322126A89A3A3A3A32256
:104F8300124F87221241388A828B83A3A3A3A322C1
:104F9300F0124F9822EE2426F582E43FF58322F0A7
:104FA300EE24321258C022F0EE242C1258C0227480
:104FB300F4120A1774FE121086ECFEEDFFEC2416B1
:104FC30012583F64057010EC2406FCE43FFD1221E7
:104FD30063E9700302505EAC21AD22126C83121D93
:104FE300DF8521828522831253FC606B8E828F833F
:104FF300E064017058E875F009A4F8AAF075F009A7
:10500300E9A42AF974E428F8740239F9E8FAE9FB07
:105013008882F583780812126BEE12510012121D6A
:105023004027852182852283124C2012584D12502D
:1050330063780812126B90865278081211548A8290
:105043008B83780812127A800A79A28010EE240FDB
:10505300126EC47900800679A1800279C802329C5D
:10506300124C81EE1269552274F2120A178A0C8BC4
:105073000DECFEEDFFEC12584DE4F0A3F090861A10
:10508300780812126BEC12510012109C6067EC242A
:105093000E125846703478B39015B2E0702890150C
:1050A300E4E064017020EC241112583FF912226BE2
:1050B3008B09A909EE12537F3F12622FEA4960045C
:1050C3007800800278A18808802EE0600464027072
:1050D3000A122175E9F5087007801DE0640370105A
:1050E300EEFCEFFDAA0CAB0D121E03E9F5088008D8
:1050F3007508A180037508A3A908024ED612695545
:1051030078082274F0120A1774F5121086EAFEEB7F
:10511300FFEA240AFCE43F8C82F583127BC5125319
:105123008974031210508A828B83126025E97003FD
:105133000251EF74011210507403121048121DDF54
:1051430074011212E01253FC70030251EFE875F080
:1051530009A4F8AAF075F009E9A42AF974E028FC77
:10516300740239FDE508240E126476E4F004121289
:10517300E0124130E50812537F3509126EC88C8264
:105183008D831212C9E50824121264761212A590B7
:105193008652780812126B8C828D8378081211B3B1
:1051A3008C828D83780C12126B9086B2780812125F
:1051B3006B780C79081209A8E5084509450A450BDF
:1051C300702A74011212E012539F75F009A4F8AA11
:1051D300F075F009E9A42AF974E828F58274023914
:1051E300F5837401F07A007B081253AC8E828F83AF
:1051F300A3A3A3A3A3A3A3A3A3A3E02406FCA3E0C5
:105203003400FD8E828F83126025126747603EEE65
:10521300240A125371124C257468124C57E8125326
:105223006B39F5837402F090159D1212C98C828D2F
:105233008312621E125E103CF5831212A5908652F1
:10524300780812126B90159D78081211B31253E768
:10525300705D90156B125397A3A3A3A3A3A3A3A35A
:10526300A3A3125E46121A37E97010125E0490155A
:105273006B125E16700512674760348E828F83A3AC
:10528300A3A3A3A3A3A3A3A3A3125397124DEA1209
:105293001E09E960118E828F83A3A3A3A3A3A31284
:1052A30053D3E4F0A3F08E828F831253B9E4F01248
:1052B30053E760030253668E828F83A3A3A3A3A342
:1052C300A3127BC19015B2E0600302535B9015E417
:1052D300E06401600302535B750A3A750B00780AB8
:1052E300120FC47402121040880A890B780A120F35
:1052F300C41271C0120FF2E9705BE508240E126448
:10530300767401125401C0E0E5082411126476D0CA
:10531300E0F0E508240F126476743A124C579015A6
:10532300991212C9E50824121264761212A5908606
:1053330052780812126B90159978081211B390865F
:1053430052780812126B901599780812109C700805
:105353001253A880031253891253E77006125D0794
:1053630074A1F0740B026AF9240EF582E422F8E4C6
:105373003FF9E8FCE9FD8882F58322EA1253832290
:10538300240FF582E422E5081253833509F583E4FB
:10539300F0A3F02212772C8E828F83221253A32242
:1053A300124138E8227A007B02901444E0F9121883
:1053B300E7228A828B83A3A3A3A3A3A3A3A3A3A369
:1053C3001253C722124BFA240EF582E438F58322D6
:1053D300A3A3A3A31253DB22124BFA240FF582E4F7
:1053E30038F583228E828F83A3A3A3A3A3A3124B97
:1053F300F2240FF582E438F5831253A349221254A1
:105403000522F0852182852283E02274F6120A1791
:10541300EAFEEBFF7A237B0012193BEE240AF50820
:10542300E43FF50985088212622F7C237D00790011
:105433001218938508828509831253FC7003025462
:10544300CFEEFAEFFB1221811253E760748E828F45
:105453008312550264018E828F83A3A3A3A3A3A304
:1054630070071254F8740E80211253FC70101267E7
:1054730047700B8E828F83A3A3E0A2E050071254E0
:10548300EE740D80051254EE7405126759540364CB
:105493000170071254D67405800B9015B3E0C0E079
:1054A3001254D6D0E0125511F583888212586C85B8
:1054B3000882850983124BE21261C338F583E980C0
:1054C3000E8508828509831262A880031261EBF0BE
:1054D3000241298E828F83A3A3A3A3A3A3A3A3A380
:1054E300A31254E822E012620AA3228E828F83A3BE
:1054F300A3A3A3A3A3124BF21261C938F58322A37A
:10550300A3A3A3A3A3A3A3A3A31253C7E022125548
:105513001522126C98F8A3E022EA1255243BF58376
:1055230022240CF582E42274F1120A1774E4121097
:10553300868A0C8B0D8C088D097A237B0012193B0C
:105543008A0A8B0BAE0AAF0BEA4F7003025827127D
:1055530061CFE5082415125858687003A3E0698EDB
:10556300828F837004740280027401F0E508240DB5
:10557300F8E43509F98882F583E0FAC3E49AFA95E9
:10558300E0FB1258542AFAA3E03BFB8E828F83A3DD
:10559300A3A3A3125E2D8E828F83A3A3F0EE2420F8
:1055A300F582E43FF583E4F0EE2421F582E43FF550
:1055B30083E4F0EEFAEFFB12223585088285098336
:1055C30012587370098E828F83A374058006901519
:1055D300B3125861F0EE2417F50AE43FF50B8E82FF
:1055E3008F8312586CE9850A82850B83F0EE2416AB
:1055F300F8E43FF9E508240EFAE43509FB888289CB
:1056030083124C3FE5082410FAE43509FB850A822E
:10561300850B83E0FC88828983E0F88A828B83E0B0
:10562300C398C39CF81258ADF0EEFCEFFDAA0CAB87
:105633000D12217BE9F50B8E828F83E064027006E5
:10564300125E04125831E50B600302581E750C00FC
:10565300750D009017BEE064016005E06402703FC1
:105663001258436008EE242112584670328E828FFE
:1056730083A3A3A31261F1125879EE241612583FA3
:105683001258A2FAE439FB123F31EA4B6011126A55
:1056930053120FC0125887AA0C126EF1120FF2EEBA
:1056A300FAEFFB122241E9F50B9017BEE0640160AB
:1056B30008E064026003025811E97003025811E51F
:1056C3000C450D700302581E8003850E0B125843C0
:1056D300600BEE24211258466003025817850B0E07
:1056E300850C08850D09750A007808120FC0125839
:1056F300878E828F83A3A3A3A3127C0A120FF2EED9
:10570300242012583F600D12584C7468124C57EE07
:1057130024208015EE242112583F601512584C7432
:1057230003F0A37401F0EE2421F582E43FF583E452
:10573300F0EEFAEFFB122241E9F50B70907C137D3A
:105743000079007409121048121893741A1212E0A7
:1057530074011258B864687002A3E0704F8E828F90
:10576300831253D3E0640560030256CD7C0879FFAE
:105773008E828F83A3A3A3A3E0242A125E49121966
:105783001DE970030256CD7C087D0079FF74011278
:10579300104812189374011210507A007B0079ABF1
:1057A30012215D74191212E074FC801512584CE03A
:1057B30064037004A3E06401700874191212E074A6
:1057C300FFF0E4F508F5097808120FC4740212100B
:1057D3005074131212E0AA82AB8312632E120FF2DB
:1057E300852182852283E0602B740912104088088A
:1057F30089097808120FC47508137509007808120F
:105803000FC47C007D00126BA1120FF28006E50C21
:10581300450D6007AA0CAB0D121941EEFAEFFB120E
:1058230019418003750B10A90B741C027821EE2417
:1058330006FAE43FFB121A3D22EE240C1258C02252
:10584300EE24201258C0640122EE1253833FF583E5
:1058530022E508240EF582E43509F583E022125887
:1058630066A322E08E828F8322A3E0F91222832291
:10587300E0540364012212587D22E0FAE82AF8E496
:105883003400F9228E828F83A3A3A31261F51258E9
:105893007DEE24161258C01258A2FCE439FD22FAF8
:1058A300E82AF8E439F9E82404221258B1221267ED
:1058B30068A3A3A322F01258BD22EE240FF582E4BD
:1058C3003FF583E0227901020F8774F4120A17EA85
:1058D300FEEBFF8A82F583A3A3A3A3A3A3A3A3122F
:1058E3004BE22424F582E438F583125873702E8A30
:1058F300828B83125502702512599BE06405701D3B
:1059030012599BA3E0F87401686005740668700778
:105913001253B5740280051253B57403F0EA240AD6
:1059230012629C126205E4F0EA2408F8E43F1232A2
:105933008B2431F582E43AF583E0C0E0126F3CA397
:10594300A3D0E01259BACA242EF582E43AF583E0D3
:10595300C0E0126F3CA3A3A3D0E0125EE0C81259CB
:10596300953812412E126F3C1259AF8A0A8B0BAC39
:105973000AAD0B850882850983125E46121A3D859E
:105983000882850983124DEA122241126297F002BE
:1059930032A1240BF582E4228A828B83A3A3A3A3DF
:1059A300A3A3A3A312672EF583888222A3A3A3A391
:1059B300124C811223AF22125E22FAA3E022025874
:1059C300C8C082C08390158D7487F0A37421F090B2
:1059D300158F7493F0A37421F09015917499F0A32B
:1059E3007421F0901593748DF0A37421F0025CCBB5
:1059F30074F4120A17EA2408FEE43BFF8E82F5834F
:105A030012539F1261DBE0F50874035508F5091280
:105A13005E41F8A3E08882F583E508F0A3A882A994
:105A230083E5096009740265096003025AE0740C96
:105A33005508FC600A74086C600574046C70267465
:105A43000265097006E508A2E4401A8A828B83A3E3
:105A5300A3A3A3A3A3A3A3125BE61269343D125B22
:105A630081A308A983740C6C701C125BE2242812B6
:105A73005BCE2428F582E43DF583A3126562F0E84A
:105A83002402F8500109740265097006E508A2E4CE
:105A9300404B125BE2242A125BCE242AF582E43DBA
:105AA300F583A3125B90125BEC126562125BECA3AD
:105AB300125B88E82404F8500109EC600F74086C49
:105AC300600A740C6C600574046C70111262122409
:105AD30026F582E43C125B81A3A882A9838A828B88
:105AE30083A3A3A3A3A3A3A3A3125BB05403701420
:105AF300E508A2E1400E126212125B7B3CF583E0E3
:105B030054806008125B96125B838019901561E0E4
:105B1300C0E0125B96D0E0125BC388828983125B7C
:105B2300C304125E27A3A882A983E508A2E7504510
:105B33008E828F83125BB088828983125BC9125B6A
